{
  "transactions": [
    {
      "hash": "0x4f4a135c1ea49e0cf7fc4fae85b95986718643e4fac1268dc63e5f5d63ce9c5b",
      "transactionType": "CALL",
      "contractName": null,
      "contractAddress": "0xd87e98798b1441c4b7fb7abd918f90e42ae3d735",
      "function": "setSwapRouter(address)",
      "arguments": [
        "0x8A68Dd4b423Ef7568d0cdf3bB8E4863Ca1041a9e"
      ],
      "transaction": {
        "from": "0x24a9267ce9e0a8f4467b584fdda12baf1df772b5",
        "to": "0xd87e98798b1441c4b7fb7abd918f90e42ae3d735",
        "gas": "0x113b8",
        "value": "0x0",
        "input": "0x412736570000000000000000000000008a68dd4b423ef7568d0cdf3bb8e4863ca1041a9e",
        "nonce": "0x72",
        "chainId": "0x89"
      },
      "additionalContracts": [],
      "isFixedGasLimit": false
    }
  ],
  "receipts": [
    {
      "status": "0x1",
      "cumulativeGasUsed": "0xa5dd62",
      "logs": [
        {
          "address": "0x0000000000000000000000000000000000001010",
          "topics": [
            "0x4dfe1bbbcf077ddc3e01291eea2d5c70c2b422b415d95645b9adcfd678cb1d63",
            "0x0000000000000000000000000000000000000000000000000000000000001010",
            "0x00000000000000000000000024a9267ce9e0a8f4467b584fdda12baf1df772b5",
            "0x000000000000000000000000a8b52f02108aa5f4b675bdcc973760022d7c6020"
          ],
          "data": "0x0000000000000000000000000000000000000000000000000005725654dbd4000000000000000000000000000000000000000000000000000733385408f4e7370000000000000000000000000000000000000000000000117b4956d11551beb1000000000000000000000000000000000000000000000000072dc5fdb41913370000000000000000000000000000000000000000000000117b4ec9276a2d92b1",
          "blockHash": "0x475aee92d629da396b5e10651b3cd9d927f989a781e6c6eb199c69242fedbbfd",
          "blockNumber": "0x453276b",
          "transactionHash": "0x4f4a135c1ea49e0cf7fc4fae85b95986718643e4fac1268dc63e5f5d63ce9c5b",
          "transactionIndex": "0x4c",
          "logIndex": "0x12d",
          "removed": false
        }
      ],
      "logsBloom": "0x00000000000000000000000020000000000000000000000000000000000000000000000000000000000000000002000000008000000000000000000000000000000000000000000000000000000000800000000000000000000100000000000000000000000000000000000000000000000000000000000080000000000000000000000000000000000000000000000000000000000000040000000000000040200000000000004000000000000000000000000000000000000000000000004000000000000000000001000000000000000000000000000000100000000000000000000000000000000000080000000000000000000000000000000000100000",
      "type": "0x2",
      "transactionHash": "0x4f4a135c1ea49e0cf7fc4fae85b95986718643e4fac1268dc63e5f5d63ce9c5b",
      "transactionIndex": "0x4c",
      "blockHash": "0x475aee92d629da396b5e10651b3cd9d927f989a781e6c6eb199c69242fedbbfd",
      "blockNumber": "0x453276b",
      "gasUsed": "0xc79f",
      "effectiveGasPrice": "0xeb0e78dec",
      "from": "0x24a9267ce9e0a8f4467b584fdda12baf1df772b5",
      "to": "0xd87e98798b1441c4b7fb7abd918f90e42ae3d735",
      "contractAddress": null
    }
  ],
  "libraries": [],
  "pending": [],
  "returns": {},
  "timestamp": 1749478550,
  "chain": 137,
  "commit": "630910a"
}