{
  "transactions": [
    {
      "hash": "0x7aa9f3c32aa2c2e97e25fe562d94f833295e68e37d4cbf52b816aff93286eb10",
      "transactionType": "CALL",
      "contractName": null,
      "contractAddress": "0x176521bc70b0b575b5d76f6c2456dc2c70d5178c",
      "function": "setSwapRouter(address)",
      "arguments": [
        "0xE9049014d57a114afeD1AC3Df10168e32b0b2077"
      ],
      "transaction": {
        "from": "0x24a9267ce9e0a8f4467b584fdda12baf1df772b5",
        "to": "0x176521bc70b0b575b5d76f6c2456dc2c70d5178c",
        "gas": "0x14f10",
        "value": "0x0",
        "input": "0x41273657000000000000000000000000e9049014d57a114afed1ac3df10168e32b0b2077",
        "nonce": "0x199",
        "chainId": "0xa4b1"
      },
      "additionalContracts": [],
      "isFixedGasLimit": false
    }
  ],
  "receipts": [
    {
      "status": "0x1",
      "cumulativeGasUsed": "0x171999",
      "logs": [],
      "logsBloom": "0x00000000000000000000000000000000000000000000000000000000000000000000000000000000000000000000000000000000000000000000000000000000000000000000000000000000000000000000000000000000000000000000000000000000000000000000000000000000000000000000000000000000000000000000000000000000000000000000000000000000000000000000000000000000000000000000000000000000000000000000000000000000000000000000000000000000000000000000000000000000000000000000000000000000000000000000000000000000000000000000000000000000000000000000000000000000",
      "type": "0x2",
      "transactionHash": "0x7aa9f3c32aa2c2e97e25fe562d94f833295e68e37d4cbf52b816aff93286eb10",
      "transactionIndex": "0x4",
      "blockHash": "0x4492dc53ed26c62a350e5c4b7fd58ab3e9943d99681ddfa8d563436421c56514",
      "blockNumber": "0x147a9689",
      "gasUsed": "0xf139",
      "effectiveGasPrice": "0x989680",
      "from": "0x24a9267ce9e0a8f4467b584fdda12baf1df772b5",
      "to": "0x176521bc70b0b575b5d76f6c2456dc2c70d5178c",
      "contractAddress": null,
      "gasUsedForL1": "0x299a",
      "l1BlockNumber": "0x1593fe4",
      "timeboosted": false
    }
  ],
  "libraries": [],
  "pending": [],
  "returns": {},
  "timestamp": 1748979662,
  "chain": 42161,
  "commit": "a150265"
}