{
  "transactions": [
    {
      "hash": "0x574d8e974c8a95928ee5c55decdc469d0d43c856a577e40522bbcd0291ab8f64",
      "transactionType": "CALL",
      "contractName": null,
      "contractAddress": "0xef1ce4489962e6d6d6be8066e160b2799610cb85",
      "function": "setSwapRouter(address)",
      "arguments": [
        "0xA307099736ff10f6A639D8a00F3C0AC62E10424a"
      ],
      "transaction": {
        "from": "0x24a9267ce9e0a8f4467b584fdda12baf1df772b5",
        "to": "0xef1ce4489962e6d6d6be8066e160b2799610cb85",
        "gas": "0x18704",
        "value": "0x0",
        "input": "0x41273657000000000000000000000000a307099736ff10f6a639d8a00f3c0ac62e10424a",
        "nonce": "0x1b0",
        "chainId": "0xa4b1"
      },
      "additionalContracts": [],
      "isFixedGasLimit": false
    }
  ],
  "receipts": [
    {
      "status": "0x1",
      "cumulativeGasUsed": "0x6b7d3",
      "logs": [],
      "logsBloom": "0x00000000000000000000000000000000000000000000000000000000000000000000000000000000000000000000000000000000000000000000000000000000000000000000000000000000000000000000000000000000000000000000000000000000000000000000000000000000000000000000000000000000000000000000000000000000000000000000000000000000000000000000000000000000000000000000000000000000000000000000000000000000000000000000000000000000000000000000000000000000000000000000000000000000000000000000000000000000000000000000000000000000000000000000000000000000",
      "type": "0x2",
      "transactionHash": "0x574d8e974c8a95928ee5c55decdc469d0d43c856a577e40522bbcd0291ab8f64",
      "transactionIndex": "0x5",
      "blockHash": "0x32a60e3299e74121f92a3672c94de882725e937ec551991c6e44a4ed7f5696b6",
      "blockNumber": "0x1498ebe8",
      "gasUsed": "0x111be",
      "effectiveGasPrice": "0x989680",
      "from": "0x24a9267ce9e0a8f4467b584fdda12baf1df772b5",
      "to": "0xef1ce4489962e6d6d6be8066e160b2799610cb85",
      "contractAddress": null,
      "gasUsedForL1": "0x4a1f",
      "l1BlockNumber": "0x159e129",
      "timeboosted": false
    }
  ],
  "libraries": [],
  "pending": [],
  "returns": {},
  "timestamp": 1749478642,
  "chain": 42161,
  "commit": "630910a"
}