{
  "transactions": [
    {
      "hash": "0x8792adeee8fe6fd639df4b570d609210cb37dac8a1a515b3daed3ba012bcadfa",
      "transactionType": "CALL",
      "contractName": null,
      "contractAddress": "0x6d4d4a979d766e8b87c985a61b262cfcdf8d6446",
      "function": "setSwapRouter(address)",
      "arguments": [
        "0xA307099736ff10f6A639D8a00F3C0AC62E10424a"
      ],
      "transaction": {
        "from": "0x24a9267ce9e0a8f4467b584fdda12baf1df772b5",
        "to": "0x6d4d4a979d766e8b87c985a61b262cfcdf8d6446",
        "gas": "0xe8a7",
        "value": "0x0",
        "input": "0x41273657000000000000000000000000a307099736ff10f6a639d8a00f3c0ac62e10424a",
        "nonce": "0x1ac",
        "chainId": "0xa4b1"
      },
      "additionalContracts": [],
      "isFixedGasLimit": false
    }
  ],
  "receipts": [
    {
      "status": "0x1",
      "cumulativeGasUsed": "0x993e",
      "logs": [],
      "logsBloom": "0x00000000000000000000000000000000000000000000000000000000000000000000000000000000000000000000000000000000000000000000000000000000000000000000000000000000000000000000000000000000000000000000000000000000000000000000000000000000000000000000000000000000000000000000000000000000000000000000000000000000000000000000000000000000000000000000000000000000000000000000000000000000000000000000000000000000000000000000000000000000000000000000000000000000000000000000000000000000000000000000000000000000000000000000000000000000",
      "type": "0x2",
      "transactionHash": "0x8792adeee8fe6fd639df4b570d609210cb37dac8a1a515b3daed3ba012bcadfa",
      "transactionIndex": "0x1",
      "blockHash": "0x227ebcfe0095a577552341ca3dd2e0671216b8aee143c941a674ba946daa9a9f",
      "blockNumber": "0x1498cba4",
      "gasUsed": "0x993e",
      "effectiveGasPrice": "0x105c3b8",
      "from": "0x24a9267ce9e0a8f4467b584fdda12baf1df772b5",
      "to": "0x6d4d4a979d766e8b87c985a61b262cfcdf8d6446",
      "contractAddress": null,
      "gasUsedForL1": "0x1e12",
      "l1BlockNumber": "0x159e07e",
      "timeboosted": false
    }
  ],
  "libraries": [],
  "pending": [],
  "returns": {},
  "timestamp": 1749476563,
  "chain": 42161,
  "commit": "630910a"
}