{
  "transactions": [
    {
      "hash": "0xcf272d34ebd63fb853575689d74f7c30c6538782cadf0efd90cbfffc862fce4c",
      "transactionType": "CALL",
      "contractName": null,
      "contractAddress": "0x8e4404c32c13c2c42910508992ae498fc9984d06",
      "function": "setSwapRouter(address)",
      "arguments": [
        "0xc352fB0E5fC310FCbfD736542d45Efa27B9E1Cae"
      ],
      "transaction": {
        "from": "0x24a9267ce9e0a8f4467b584fdda12baf1df772b5",
        "to": "0x8e4404c32c13c2c42910508992ae498fc9984d06",
        "gas": "0x113b8",
        "value": "0x0",
        "input": "0x41273657000000000000000000000000c352fb0e5fc310fcbfd736542d45efa27b9e1cae",
        "nonce": "0xfe",
        "chainId": "0xa"
      },
      "additionalContracts": [],
      "isFixedGasLimit": false
    }
  ],
  "receipts": [
    {
      "status": "0x1",
      "cumulativeGasUsed": "0xb3df91",
      "logs": [],
      "logsBloom": "0x00000000000000000000000000000000000000000000000000000000000000000000000000000000000000000000000000000000000000000000000000000000000000000000000000000000000000000000000000000000000000000000000000000000000000000000000000000000000000000000000000000000000000000000000000000000000000000000000000000000000000000000000000000000000000000000000000000000000000000000000000000000000000000000000000000000000000000000000000000000000000000000000000000000000000000000000000000000000000000000000000000000000000000000000000000000",
      "type": "0x2",
      "transactionHash": "0xcf272d34ebd63fb853575689d74f7c30c6538782cadf0efd90cbfffc862fce4c",
      "transactionIndex": "0x26",
      "blockHash": "0x6d2bfc61bc809011373b4acb5cf04aea8fdec245fca4b1f7b433cc44bfc31983",
      "blockNumber": "0x82989ce",
      "gasUsed": "0xc79f",
      "effectiveGasPrice": "0x2a4",
      "from": "0x24a9267ce9e0a8f4467b584fdda12baf1df772b5",
      "to": "0x8e4404c32c13c2c42910508992ae498fc9984d06",
      "contractAddress": null,
      "l1BaseFeeScalar": "0x146b",
      "l1BlobBaseFee": "0x1",
      "l1BlobBaseFeeScalar": "0xf79c5",
      "l1Fee": "0x94e8ed0bf",
      "l1GasPrice": "0x11ce2cb30",
      "l1GasUsed": "0x640"
    }
  ],
  "libraries": [],
  "pending": [],
  "returns": {},
  "timestamp": 1749478742,
  "chain": 10,
  "commit": "630910a"
}