{
  "transactions": [
    {
      "hash": "0x2cd3cd2746050620b71a6d196bf7891f423c0569f4d4cc63f05bf108d80ae07f",
      "transactionType": "CALL",
      "contractName": null,
      "contractAddress": "0xf33e750336e9c0d4e2f4c0d450d753030693cc71",
      "function": "setSwapRouter(address)",
      "arguments": [
        "0xd1eE705D774d59541d3D395e72A16E48389DF7C7"
      ],
      "transaction": {
        "from": "0x24a9267ce9e0a8f4467b584fdda12baf1df772b5",
        "to": "0xf33e750336e9c0d4e2f4c0d450d753030693cc71",
        "gas": "0x1157f",
        "value": "0x0",
        "input": "0x41273657000000000000000000000000d1ee705d774d59541d3d395e72a16e48389df7c7",
        "nonce": "0x169",
        "chainId": "0x1"
      },
      "additionalContracts": [],
      "isFixedGasLimit": false
    }
  ],
  "receipts": [
    {
      "status": "0x1",
      "cumulativeGasUsed": "0x10cc894",
      "logs": [],
      "logsBloom": "0x00000000000000000000000000000000000000000000000000000000000000000000000000000000000000000000000000000000000000000000000000000000000000000000000000000000000000000000000000000000000000000000000000000000000000000000000000000000000000000000000000000000000000000000000000000000000000000000000000000000000000000000000000000000000000000000000000000000000000000000000000000000000000000000000000000000000000000000000000000000000000000000000000000000000000000000000000000000000000000000000000000000000000000000000000000000",
      "type": "0x2",
      "transactionHash": "0x2cd3cd2746050620b71a6d196bf7891f423c0569f4d4cc63f05bf108d80ae07f",
      "transactionIndex": "0x7f",
      "blockHash": "0x550d57445dc28d564e3ec356cb041fd55f24c4c354c91a69a686e7f18e5a25fb",
      "blockNumber": "0x159e075",
      "gasUsed": "0xc8e8",
      "effectiveGasPrice": "0x1374e8269",
      "from": "0x24a9267ce9e0a8f4467b584fdda12baf1df772b5",
      "to": "0xf33e750336e9c0d4e2f4c0d450d753030693cc71",
      "contractAddress": null
    }
  ],
  "libraries": [],
  "pending": [],
  "returns": {},
  "timestamp": 1749476437,
  "chain": 1,
  "commit": "630910a"
}