{
  "transactions": [
    {
      "hash": "0x22b60cf486363e33fcf0c7a2fd0d1918a0974ef06e1f9225039d316e9b749f4f",
      "transactionType": "CALL",
      "contractName": null,
      "contractAddress": "0x1fe8e504d2fbd2dfdeb271c6b92016bf0454177f",
      "function": "setSwapRouter(address)",
      "arguments": [
        "0x8A68Dd4b423Ef7568d0cdf3bB8E4863Ca1041a9e"
      ],
      "transaction": {
        "from": "0x24a9267ce9e0a8f4467b584fdda12baf1df772b5",
        "to": "0x1fe8e504d2fbd2dfdeb271c6b92016bf0454177f",
        "gas": "0x1157f",
        "value": "0x0",
        "input": "0x412736570000000000000000000000008a68dd4b423ef7568d0cdf3bb8e4863ca1041a9e",
        "nonce": "0x6e",
        "chainId": "0x89"
      },
      "additionalContracts": [],
      "isFixedGasLimit": false
    }
  ],
  "receipts": [
    {
      "status": "0x1",
      "cumulativeGasUsed": "0x6ddb97",
      "logs": [
        {
          "address": "0x0000000000000000000000000000000000001010",
          "topics": [
            "0x4dfe1bbbcf077ddc3e01291eea2d5c70c2b422b415d95645b9adcfd678cb1d63",
            "0x0000000000000000000000000000000000000000000000000000000000001010",
            "0x00000000000000000000000024a9267ce9e0a8f4467b584fdda12baf1df772b5",
            "0x000000000000000000000000b9ede6f94d192073d8eaf85f8db677133d483249"
          ],
          "data": "0x00000000000000000000000000000000000000000000000000057b505eb3e0000000000000000000000000000000000000000000000000000b2a10beb43e79940000000000000000000000000000000000000000000000bdad2ad1ec421b66660000000000000000000000000000000000000000000000000b24956e558a99940000000000000000000000000000000000000000000000bdad304d3ca0cf4666",
          "blockHash": "0x4edf28a2ffe90ab7220911479dd299db36bdae89fbe5b19cca7a9dac1cfb7d98",
          "blockNumber": "0x45323e2",
          "transactionHash": "0x22b60cf486363e33fcf0c7a2fd0d1918a0974ef06e1f9225039d316e9b749f4f",
          "transactionIndex": "0x29",
          "logIndex": "0xff",
          "removed": false
        }
      ],
      "logsBloom": "0x00000000000000000000000020000000000000000000000000000000000000000000000000000000000000000000000000008000000000000000000000000000000000000000000000000000000000800000000000000000000100000000000000000000000000000000000000000000000000000000000080000000000100000000000000000000000000000000000000000000000000000000000000000040200000000000000000000000000000000000000000000000000000000000004000000000000000000001000000000000000000000000000000100000000000000000000000000000100000080000000000000000000000200000000000100000",
      "type": "0x2",
      "transactionHash": "0x22b60cf486363e33fcf0c7a2fd0d1918a0974ef06e1f9225039d316e9b749f4f",
      "transactionIndex": "0x29",
      "blockHash": "0x4edf28a2ffe90ab7220911479dd299db36bdae89fbe5b19cca7a9dac1cfb7d98",
      "blockNumber": "0x45323e2",
      "gasUsed": "0xc8e8",
      "effectiveGasPrice": "0x17aedac3bb",
      "from": "0x24a9267ce9e0a8f4467b584fdda12baf1df772b5",
      "to": "0x1fe8e504d2fbd2dfdeb271c6b92016bf0454177f",
      "contractAddress": null
    }
  ],
  "libraries": [],
  "pending": [],
  "returns": {},
  "timestamp": 1749476627,
  "chain": 137,
  "commit": "630910a"
}